:020000040800F2
:1000000020090020A1010008D31D0008951C00084C
:10001000D11D0008A505000801230008000000000C
:10002000000000000000000000000000451F000864
:100030003106000800000000D51D0008471F000819
:10004000BB010008BB010008BB010008BB010008A0
:10005000BB010008BB010008BB010008BB01000890
:10006000BB010008BB010008BB010008A90500088E
:10007000BB010008BB010008BB010008BB01000870
:10008000BB010008BB010008BB010008BB01000860
:10009000BB010008BB010008BB010008BB01000850
:1000A000BB010008BB010008BB010008BB01000840
:1000B000BB010008BB010008BB010008BB01000830
:1000C000BB010008BB010008BB010008BB01000820
:1000D000BB010008BB010008BB010008BB01000810
:1000E000BB010008BB010008BB010008BB01000800
:1000F000BB010008BB010008BB010008BB010008F0
:10010000BB010008BB010008BB010008BB010008DF
:10011000BB010008F11F0008BB010008BB0100087B
:10012000BB010008BB010008BB010008BB010008BF
:10013000BB010008BB010008BB010008BB010008AF
:10014000BB010008BB010008BB010008BB0100089F
:10015000BB010008BB010008BB010008BB0100088F
:10016000BB010008BB010008BB010008BB0100087F
:10017000BB010008BB010008BB0100080000000033
:10018000BB010008BB010008DFF810D000F07CF8CC
:1001900000480047D5270008AFF300802009002061
:1001A0000648804706480047FEE7FEE7FEE7FEE711
:1001B000FEE7FEE7FEE7FEE7FEE7FEE7E11F0008D9
:1001C000890100082DE9F05F0546002092469B4614
:1001D00088460646814640241BE02846414647465D
:1001E000224600F041F853465A46C01A914110D3B6
:1001F00011461846224600F028F82D1A67EB010830
:100200004F4622460120002100F01FF817EB00099D
:100210004E41201EA4F10104DFDC484631462A4647
:100220004346BDE8F09FD2B201E000F8012B491E21
:10023000FBD270470022F6E710B513460A46044683
:100240001946FFF7F0FF204610BD202A04DB203AB4
:1002500000FA02F1002070479140C2F1200320FA19
:1002600003F3194390407047202A04DB203A21FA17
:1002700002F00021704721FA02F3D040C2F12002BF
:100280009140084319467047064C074D06E0E06868
:1002900040F0010394E8070098471034AC42F6D3CD
:1002A000FFF776FF182A0008382A0008F8B5044638
:1002B00000F054FC054620208DF80000200C8DF83D
:1002C0000100200A8DF802008DF8034000F03AF991
:1002D000114E4FF4004400222146304600F038FC15
:1002E0004FF47A73042269460C4801F0B6F80122F3
:1002F0002146304600F02CFC00F012F80228FBD01A
:1003000000F02CFC401B40F6B831884201D9032094
:10031000F8BD0020F8BD00000000024020040020CD
:100320007CB512A0124D00684FF4004400900022EA
:100330002146284600F00CFC4FF47A763346012221
:1003400069460C4801F089F83346012201A90948A1
:1003500000F0D6FF01222146284600F0F9FB9DF867
:100360000400C00700D002207CBD00000500000092
:10037000000002402004002038B50DA00D4D00689B
:100380004FF40044009000222146284600F0E0FB94
:100390004FF47A7302226946074801F05EF80122A1
:1003A0002146284600F0D4FBBDE83840FFF7B8BF2F
:1003B0006699000000000240200400202DE9F84367
:1003C000054603208DF80000080C8DF80100080A8E
:1003D0008DF80200DFF8488014468DF803104FF4C2
:1003E000004700223946404600F0B2FB4FF47A76CF
:1003F0003346042269460B4801F02FF8A2B2334677
:100400002946084800F07CFF10B10120BDE8F883C0
:1004100001223946404600F09BFB0020F6E7000031
:100420000000024020040020F8B504460FA0104E42
:1004300000684FF40045009000222946304600F045
:1004400087FB4FF47A773B4604226946094801F05E
:1004500004F83B4602222146064800F051FF0122E3
:100460002946304600F074FBF8BD00009000000003
:1004700000000240200400202DE9F74F82B016460C
:100480000C4600F06BFB8346002001E000F5807015
:10049000A042FBD9051BB54200D9354604EB060A3C
:1004A000DFF898804FF002094FF400474FF47A7656
:1004B0008DF80090200C8DF80100200A8DF80200C4
:1004C0008DF8034000F03EF800223946404600F027
:1004D0003FFB334604226946194800F0BEFF30B99D
:1004E000AAB233461648029900F0B7FF18B10120AE
:1004F00005B0BDE8F08F01223946404600F028FBE8
:10050000FFF70EFF0228FBD000F028FBA0EB0B004A
:10051000B04201D90320EBE702982C442844029012
:1005200004F58070504502D9AAEB040501E04FF4B0
:1005300080755445BCD30020DAE70000000002407B
:1005400020040020F8B514A00068009000F006FB1D
:10055000124E04464FF4004500222946304600F072
:10056000F7FA4FF47A773B46012269460C4800F0CF
:1005700074FF01222946304600F0EAFAFFF7D0FE68
:100580000228FBD000F0EAFA001BB84201D9032090
:10059000F8BD0020F8BD0000060000000000024089
:1005A00020040020FEE70000014800F09FB8000092
:1005B000BC04002001681823CAB2103AB2FBF3F25F
:1005C000054B6FF30901032A9B5CC36500D9091D24
:1005D0008165084670470000F829000810B50146FB
:1005E00000208B698A6A4FF0C07453B1B3F5005F85
:1005F00015D072B1012A0CD0022A0AD0032A09D1DF
:1006000004E01AB1012A06D0022A03D1C96AC9013D
:1006100000D5012010BDC96AA142FAD010BD002A40
:10062000F7D0012AF2D0022AF3D0032AF3D010BD6A
:10063000704772B6FEE72DE9F0410446876D00F081
:100640008DFA064694F835000025022806D0802051
:10065000606584F834500120BDE8F08120680168AD
:1006600021F0160101602068416921F0800141619B
:10067000206C08B9A06C20B12068016821F0080145
:1006800001602068016821F0010101600CE000F0C8
:1006900065FA801B052807D920206065032084F8AF
:1006A000350084F83450D7E720680068C007EED1E1
:1006B00094F85C103F208840B860012084F8350031
:1006C00084F834500020C7E790F83510022903D091
:1006D0008021416501207047052180F835100068B0
:1006E000016821F001010160002070472DE9F84305
:1006F00004464FF00009CDF8009063484FF41651BE
:10070000A56D0068B0FBF1F72E6894F85C10082026
:1007100000FA01F131420FD021680A6852070BD567
:100720000A6822F004020A6094F85C108840A8600D
:10073000606D40F00100606594F85C104FF00108B6
:1007400008FA01F0304208D021684969090604D549
:10075000A860606D40F00200606594F85C100420B1
:100760008840304208D021680968890704D5A8600C
:10077000606D40F00400606594F85C1010208840C3
:10078000304218D021680968090714D5A86020688C
:100790000168490304D50068000308D5A16C07E08F
:1007A0000168C90503D4016821F008010160216CCA
:1007B00009B12046884794F85C10202088403042D8
:1007C00031D021680968C9062DD5A86094F8350094
:1007D00005282068016806D0490347D50068000352
:1007E0001DD4616C1CE021F0160101602068416994
:1007F00021F080014161206C08B9A06C20B1206813
:10080000016821F00801016094F85C103F208840E5
:10081000A86084F8358084F83490216D1FE0E16B86
:1008200009B120468847606D00282BD0606DC00755
:1008300014D0052084F835002068016821F00101FA
:1008400001600098401C0090B84203D820680068FE
:10085000C007F6D184F8358084F83490E16C002923
:1008600010D001B02046BDE8F04308470168C90533
:10087000D5D4016821F01001016084F8358084F836
:100880003490CCE7BDE8F883180000202DE9F04152
:10089000044600F063F906465CB1022084F8350096
:1008A000002584F834502068016821F001010160BE
:1008B0000DE00120BDE8F08100F050F9801B052813
:1008C00005D920206065032084F83500F2E7206810
:1008D0000068C007F0D12268116820480140D4E9BF
:1008E00001031843D4E903363343184363691843BB
:1008F000A3691843E3691843236A18430843616AEC
:10090000042903D1D4E90B1319430843106020686C
:100910004069666A20F0070130460E43012704282B
:100920000CD1A06A0643E06A40B12046FFF756FEAC
:1009300020B14020606584F83570BAE720684661D0
:100940002046FFF737FE94F85C203F2191408160FC
:10095000656584F835700020ACE700003F8010F03A
:100960002DE9F84FDFF8BCA10022012503264FF046
:100970000F090AF1040BAAF1040E00BF0B6805FA77
:1009800002F42340A34270D10F7907F00307012F2F
:1009900001D0022F16D187684FEA420806FA08FCF8
:1009A00027EA0C07D1F80CC00CFA08FC4CEA070C3B
:1009B000C0F808C04768A7430C79C4F300149440FA
:1009C0003C4344600C79E443A4070AD0C4684FEA6E
:1009D000420C06FA0CF7BC438F6807FA0CF7274362
:1009E000C7600C7904F00304022C12D1D40800EB88
:1009F000840CDCF820405707FF0E09FA07F824EAB8
:100A00000804D1F8108008FA07F848EA0408CCF87E
:100A1000208004684FEA420C06FA0CF7BC430F79B9
:100A200007F0030707FA0CF7274307604C6814F434
:100A3000403F70D03C4C276847F4804727602468CB
:100A400022F0030704F480440094384C07EB040CB4
:100A5000DCF8084897074FEA177809FA08F7BC430B
:100A6000334FB84202D1002724E054E0314FB8425E
:100A700001D101271EE0304FB84201D1022719E011
:100A80002E4FB84201D1032714E02D4FB84201D1B7
:100A900004270FE02B4FB84201D105270AE02A4F67
:100AA000B84201D1062705E0284FB84201D10727F7
:100AB00000E0082707FA08F72743CCF80878DAF8A7
:100AC00000405746D1F804C09C435FEACC2C00D5C7
:100AD0001C433C60DBF800405F46D1F804C09C43F7
:100AE0005FEA8C2C00D51C433C60DEF80040774662
:100AF000D1F804C09C435FEA8C3C00D51C433C60A9
:100B0000084F083F3C68D1F804C09C435FEACC3CE6
:100B100000D51C433C60521C102AFFF42FAFBDE8E7
:100B2000F88F0000083C014044380240003001408A
:100B3000000002400004024000080240000C024095
:100B4000001002400014024000180240001C024045
:100B50000AB1816170470904FBE700000148806821
:100B6000704700000C0000200248816802781144A0
:100B7000816070470C0000200B4810B5016841F4FB
:100B800000710160016841F480610160016841F415
:100B900080710160032000F06FF80F2000F006F86C
:100BA00000F024F8002010BD003C024070B50D4D4F
:100BB00004464FF47A712878B1FBF0F00A490968CD
:100BC000B1FBF0F000F0EDFD48B9102C07D2002287
:100BD0002146501E00F030F800206C6070BD0120EE
:100BE00070BD00000C000020180000200A4808B565
:100BF000016841F480410160006800F48040009089
:100C00000548001F016841F080510160006800F054
:100C10008050009008BD000044380240002809DBE5
:100C200000F01F02012191404009800000F1E02006
:100C3000C0F8001170470000F0B40E4B1B680C4662
:100C4000C3F30223C3F10705042D00D90425191DA0
:100C5000072901D2002300E0DB1E012606FA05F178
:100C6000491E214099409E40761E16403143F0BCFB
:100C700001F058BB0CED00E0064900F007020868DF
:100C80004FF6FF03184040EA0220034A1043086071
:100C9000704700000CED00E00000FA052DE9F04778
:100CA0000E46050065D0DFF81481D8F80000F7B2D1
:100CB00000F00700B04207D288F80070D8F80000B2
:100CC00000F00700B04254D128683D4C810712D58E
:100CD000400703D5206840F4E050206028780007E2
:100CE00003D5206840F4604020602068A96820F0A7
:100CF000F000084320602878C0072DD0304968688C
:100D00000839012812D0022813D0032811D009680D
:100D1000890700292DDA216821F0030101432160B0
:100D2000FFF71CFF814641F2883A0EE0096889030B
:100D3000EFE709688901ECE7FFF710FFA0EB090175
:100D4000514502D90320BDE8F0872068696800F0AA
:100D50000C00B0EB810FEFD1D8F80010404601F045
:100D60000701B14207D90770006800F00700B042E0
:100D700001D00120E7E72878400705D52068E96819
:100D800020F4E050084320602878000706D520684A
:100D9000296920F4604040EAC100206000F038F882
:100DA0002168084AC1F30311515CC8400649086034
:100DB00006480068FFF7FAFE0020C4E7003C024046
:100DC00008380240002A0008180000201000002007
:100DD0000448054900680968044AC1F38221515C4E
:100DE000C84070471800002008380240102A000848
:100DF0000448054900680968044AC1F34231515C5E
:100E0000C84070471800002008380240102A000827
:100E1000154810B5006810F00C02144813D04110AA
:100E2000042A0FD0082A0ED10F4C241F22682368F1
:100E300002F03F025B0207D52068C0F38810A0FBD8
:100E4000010106E0084610BD2168C1F38811A1FB2D
:100E500000010023FFF7B6F92168C1F30141491CE5
:100E60004900B0FBF1F010BD083802400024F40046
:100E70002DE9F84F04006ED02078DFF84C93C007BE
:100E8000A9F104054AD009F104000168C1F3810108
:100E9000012908D00068C0F3810002280AD1D9F8DE
:100EA0000000400206D52868800337D56068002816
:100EB000E1D033E06068B0F5803F10D0B0F5A02FEE
:100EC000286810D020F480302860286820F4802022
:100ED00028606068A8B1FFF741FE06460DE028686B
:100EE00040F48030F4E740F480202860F7E700BF4A
:100EF000FFF734FE801B642873D828688003F7D579
:100F00000CE0FFF72BFE064605E000BFFFF726FECC
:100F1000801B6428F0D828688003F7D42078DFF895
:100F2000AC8280074FF0000A3ED5A748001D01683B
:100F300011F00C0F08D00068C0F3810002280BD11B
:100F4000D9F80000400207D42868800716D5E06869
:100F5000012800D112E033E1E068B8B10120C8F8FF
:100F60000000FFF7FBFD064605E000BFFFF7F6FDBA
:100F7000801B0228C0D828688007F7D52868216917
:100F800020F0F80040EAC10028600DE0C8F800A099
:100F9000FFF7E4FD064604E0FFF7E0FD801B0228B2
:100FA0001FD828688007F7D42078000722D5864FFD
:100FB00087486169703771B101210160FFF7CEFD8B
:100FC000064604E0FFF7CAFD801B022809D83868EE
:100FD0008007F7D50EE0C0F800A0FFF7BFFD06467A
:100FE00005E082E0FFF7BAFD801B02287DD8386853
:100FF0008007F7D42078400768D5DFF8CCB1002708
:101000000BF13C0BDBF80000C0000BD4DBF8001048
:1010100041F08051CBF80010DBF80000012700F010
:10102000805000906B4E3068C00510D4306840F49A
:1010300080703060FFF792FD009005E0FFF78EFDB5
:101040000099401A022850D83068C005F6D55E4E87
:10105000A0686C3601280FD00528306810D020F029
:1010600001003060306820F004003060A068B8B142
:10107000FFF774FD00900FE0306840F00100F4E7E6
:1010800040F004003060F7E7FFF768FD0099411A6F
:1010900041F28830814266D830688007F4D50EE08E
:1010A000FFF75CFD009007E0FFF758FD0099411A3B
:1010B00041F28830814256D830688007F4D42FB18D
:1010C000DBF8001021F08051CBF80010A069C8B304
:1010D0003D49091D0968C1F3810102294AD002284E
:1010E000504607D0C8F8600000E03CE0FFF736FD4E
:1010F00004463BE04746C8F86000FFF72FFD064670
:1011000005E000BFFFF72AFD801B02282BD82868C6
:101110008001F7D4D4E907010843A16A2E4A49089F
:1011200002EB0141626A41EA8211084394F82C10F3
:1011300040EA0161C9F8001001203866FFF70EFD92
:10114000044606E03EE000BFFFF708FD001B022852
:1011500009D828688001F7D534E000BFFFF7FEFC0E
:10116000001B022802D90320BDE8F88F28688001FF
:10117000F4D427E00128F7D0D9F80000E26900F4A0
:10118000800191421CD1226A00F03F01914217D1A7
:1011900047F6C071626A0140B1EB821F10D1A26AAA
:1011A0004FF0FF3300F4403103EB5202B1EB024F3A
:1011B00006D194F82C1000F07060B0EB016F01D0F4
:1011C0000120D1E70020CFE7043802400000474269
:1011D000800E4742007000400000FFFF70B5040021
:1011E00009D0606A002540B125616561A56294F867
:1011F000510040B10CE0012070BD6068B0F5827F05
:10120000F4D0E561F2E784F85050204600F044F84D
:10121000022084F851002068016821F0400101603B
:10122000A088218900F4827001F404410843A18957
:1012300001F400610843217C01F002010843217D93
:1012400001F001010843218B01F400710843217F63
:1012500001F03801084394F8201001F080010843A0
:10126000218D01F40051084321680860A069042120
:1012700001EA104094F8241001F01001084321689D
:1012800048602068C16921F40061C1616565012081
:1012900084F85100002070BD10B586B004461421BA
:1012A0006846FEF7C7FF13492068884220D11248DC
:1012B0000021026842F480520260006800F480500D
:1012C00005900D481438026842F00202026000687E
:1012D00000F002000590382000900220CDE90101C5
:1012E000032003900520049069460448FFF738FB6B
:1012F00006B010BD003001404438024000040240F6
:101300002DE9F84F044640680025984616460F46DA
:101310004FF0040BB0F5827F01D1A06888B194F83A
:101320005000012818D0012084F85000FFF716FC67
:10133000814694F851004FF0000A01280ED0022592
:1013400082E084F851B013460A462046CDF800806A
:1013500000F036F9BDE8F88F0220FBE7002F72D0CD
:10136000002E70D084F851B0C4F854A0A763A687AB
:10137000E687C4F830A0A4F834A0A4F836A0C4F8D6
:1013800040A0C4F844A0A068B0F5004F09D120687F
:10139000016821F0400101602068016821F480416A
:1013A000016020680168490603D4016841F04001EA
:1013B0000160E068D8B139E020688168C90709D0C8
:1013C000007BA16B0870A06B401CA063E08F401EE7
:1013D000E0870CE0FFF7C2FBA0EB0901414503D316
:1013E000B8F1FF3F03D036E0B8F1000F33D0E08F03
:1013F0000028E1D11DE020688168C90709D0C068D4
:10140000A16B0880A06B801CA063E08F401EE0876A
:101410000CE0FFF7A3FBA0EB0901414503D3B8F1B2
:10142000FF3F03D017E0B8F1000F14D0E08F002881
:10143000E1D14A464146204600F0CDFC08B12020CB
:101440006065606D00B10125012084F8510084F8C9
:1014500050A028467EE70325F6E72DE9F84F04461D
:1014600090F8500000271D461646894601280DD0E9
:101470004FF0010B84F850B0FFF770FB804694F8F2
:101480005100BA46012804D0022793E00220BDE8AB
:10149000F88FB9F1000F73D0002E71D0032084F8BB
:1014A0005100C4F854A0C4F83090A686E686C4F86B
:1014B00038A0A4F83CA0A4F83EA0C4F844A0C4F806
:1014C00040A0A068B0F5004F09D12068016821F064
:1014D000400101602068016841F48041016020689A
:1014E0000168490603D4016841F040010160E068E9
:1014F000B0F5006F606803D030B3012E24D041E016
:1015000008B1012E1CD1206B21680088C86006E05C
:1015100020688168890709D5216B0988C160206B23
:10152000801C2063E08E401EE08609E0FFF716FB7A
:10153000A0EB0800A84202D3681C01D031E07DB3C3
:10154000E08E0028E4D120E0206B21680078087349
:1015500006E020688168890709D5216B0978017345
:10156000206B401C2063E08E401EE0860AE0FFF7FF
:10157000F5FAA0EB0800A84203D3681C02D010E0E3
:1015800017E06DB1E08E0028E3D14246294620469F
:1015900000F050FC08B120206065A06818B106E09A
:1015A000FFE7032706E02068C16880680090606D4F
:1015B00000B1012784F851B084F850A0384666E79E
:1015C0002DE9F84F044690F8500000270A9E1D466A
:1015D00092468B464FF0010901280ED0012084F875
:1015E0005000FFF7BBFA804694F85100616801286B
:1015F0000CD0B1F5827F07D102E00220BDE8F88F60
:10160000A16809B9042801D00227C2E0BBF1000F8C
:1016100027D0BAF1000F24D01DB394F8510004284C
:1016200002D0052084F8510000206065C4F838A07D
:10163000E587A587C4F830B0E586A5862064606498
:1016400020680168490603D4016841F04001016047
:10165000E068B0F5006F606805D0E8B3012D46D0B2
:101660007FE0012795E008B1012D39D1206B216879
:101670000088C860206B801C2063E08E401EE086DE
:101680002EE02068816889070FD5E18E69B1B9F134
:10169000010F0AD1216B0988C160206B801C206377
:1016A000E08E401EE0864FF0000920688168C9077F
:1016B0000CD0E18F51B1C068A16B0880A06B801C79
:1016C000A063E08F401EE0874FF00109FFF746FA64
:1016D000A0EB0800B04200E009E001D3701C50D13B
:1016E000E08E0028CDD1E08F0028CAD13FE0206BEA
:1016F000216800780873206B401C2063E08E401E38
:10170000E0862EE02068816889070FD5E18E69B1F7
:10171000B9F1010F0AD1216B09780173206B401CCC
:101720002063E08E401EE0864FF00009206881684B
:10173000C9070CD0E18F51B1C068A16B0870A06BD4
:10174000401CA063E08F401EE0874FF00109FFF7C7
:1017500005FAA0EB0800B04202D3701C01D010E0E3
:101760007EB1E08E0028CDD1E08F0028CAD142465C
:101770003146204600F05EFB28B10127202060653D
:1017800007E0032705E0A06818B92068C1688068F1
:101790000090012084F85100002084F85000384661
:1017A0002CE710B5401EB0F1807F01D3012010BDA1
:1017B0004FF0E02460610F21601700F0B3FD0020BE
:1017C000A06107202061002010BD704710B50446BD
:1017D0000068406994F83D10C0F3C010212911D170
:1017E00080B12068143050E8001F21F0800140E8EB
:1017F0000012002AF5D1606B08B1FEF71CFF2046ED
:1018000000F04DFC2068406994F83E10C0F3801051
:10181000222911D180B12068143050E8001F21F036
:10182000400140E80012002AF5D1A06B08B1FEF794
:1018300002FF204600F00CFC002010BD70470000A5
:10184000F8B5016804460868CA684B6910F00F0FC4
:101850004FF0000559D003F0010602F490773743AA
:1018600065D0C10705D0D10503D5216C41F0010138
:101870002164410705D5D90703D0216C41F002014D
:101880002164810705D5D90703D0216C41F00401FB
:101890002164010707D502F02001314303D0216CF8
:1018A00041F008012164216C00293AD0800604D55A
:1018B000900602D5204600F000FC20684069216CAB
:1018C000C0F38010090700D460B3204600F0C0FBCD
:1018D00020684069400621D52068143050E8001F78
:1018E00021F0400140E80012002AF5D1A06BA8B118
:1018F0006C490165A06BFEF7E7FE002811D0A06BD4
:10190000016D01B0BDE8F040084783060FD593068E
:101910000DD52046BDE8F84000F0CFBB2046FFF7CC
:101920008DFFF8BD2046FFF789FF2564F8BD266BC3
:101930002023012E79D1C60677D5D60675D508683D
:10194000486800904869400640D5A16B0868406827
:101950000004000CEAD0A28D8242E7D9E085C86974
:10196000B0F5807F2DD020680C3050E8001F21F4A6
:10197000807140E80012002AF5D12068143050E848
:10198000001F21F0010140E80012002AF5D1206873
:10199000143050E8001F21F0400140E80012002AF6
:1019A000F5D184F83E30256320680C3050E8001FE4
:1019B00021F0100140E80012002AF5D1A06BFEF7DB
:1019C0003AFEA08DE18D401A81B229E0A08DE18D13
:1019D000401A81B2E08D0028A8D00029A6D0206846
:1019E0000C3050E8002F22F4907240E80026002EC0
:1019F000F5D12068143050E8002F22F0010240E8B1
:101A00000026002EF5D184F83E30256320680C3086
:101A100050E8002F22F0100240E80023002BF5D1FF
:101A20002046FFF7D2FEF8BDFFE705062BD51506C9
:101A300029D594F83D002128F5D1A068B0F5805F44
:101A400001D12069B0B1206A411C2162216800786F
:101A50004860E08C401E0004000CE084E3D1206864
:101A6000C16821F08001C1602068C16841F0400177
:101A7000C160D8E7206A0088C0F308004860206A87
:101A8000801C2062E5E74006CDD55006CBD5CA685C
:101A9000204622F04002CA6084F83D3000F0F9F898
:101AA000C1E700004120000870B5040004D094F89C
:101AB0003D00002510B106E0012070BD84F83C50C7
:101AC000204600F023F8242084F83D002068C168F7
:101AD00021F40051C160204600F050FB20680169EC
:101AE00021F4904101612068416921F02A0141619E
:101AF0002068C16841F40051C1602564202084F849
:101B00003D0084F83E00002070BD00002DE9F0414A
:101B100086B0064614216846FEF78CFB29493068DA
:101B200088424CD128480025016841F480110160A9
:101B30000068254900F4801010390590086840F0CD
:101B400004000860086800F004000590086840F090
:101B5000080008600868022400F008000590881456
:101B600003274FF008088DE8B10169461748FEF7D2
:101B7000F7FE04208DE8B10169461548FEF7F0FE36
:101B8000154C14482060C005C4E901054014C4E99F
:101B9000035080106561C4E90650256220466562E5
:101BA000FEF774FE08B1FEF744FDB463002211464F
:101BB0003520A663FFF740F83520FFF72FF806B071
:101BC000BDE8F0810050004040380240000802406B
:101BD000000C024010600240BC040020704700006E
:101BE0002DE9F843044690F83D001F4616460D4681
:101BF00020284CD1C5B1BEB194F83C00012846D094
:101C0000012084F83C004FF00008C4F840802120F7
:101C100084F83D00FEF7A2FFA6848146E684A06812
:101C2000B0F5805F03D004E00120BDE8F8832069AF
:101C300028B12E465FF0000584F83C800EE00026B7
:101C4000FAE78021204600F01FFBA0B9AEB116F8DC
:101C5000010B21684860E08C401EE084E08C4B461C
:101C60004FF0000200970028EBD14FF040012046D2
:101C700000F00AFB30B10320D7E735F8020BC0F3C0
:101C80000800E6E7202084F83D000020CDE7022090
:101C9000CBE77047FEE70000094808B5016841F44A
:101CA000001101600068002200F40010009011464D
:101CB0000B20FEF7C1FFBDE808400B20FEF7AEBFCA
:101CC0003038024070B586B014216846FEF7B2FA8B
:101CD0001E480024016841F080010160016801F0A4
:101CE00080010591016841F001010160016801F086
:101CF00001010591016841F004010160016801F0F2
:101D000004010591016841F008010160016801F0DA
:101D100008010591016841F00201016000680C4E64
:101D200000F002004FF4004505900022294630469D
:101D3000FEF70EFF01200095CDE90104694630460B
:101D40000394FEF70DFE06B070BD0000303802406F
:101D5000000002400F4810B50D4901604FF4827138
:101D6000416000218160C1604FF400720161C0E9EF
:101D70000512C1610162416281620A21C162FFF7FD
:101D80002DFA002803D0BDE81040FEF752BC10BD6C
:101D900000300140200400200C4810B50A490160C1
:101DA0004FF4E1314160002181600C22C160C0E943
:101DB00004128161C161FFF777FE002803D0BDE8FE
:101DC0001040FEF736BC10BD0050004078040020E3
:101DD000FEE7FEE77047F8B5044640684FF48273AB
:101DE000984221D1A0684FF48065B0F5004F01D032
:101DF000A8420AD12068066826F04006066060689E
:101E0000984211D1A068A8420ED000920B46002241
:101E10008021204600F03AF8002804D0606D40F0A0
:101E2000200060650320F8BD00920B4600220121CE
:101E3000EFE7000038B504461248134B0068B0FBCA
:101E4000F3F04FF47A73584300906068B0F5827FE6
:101E50000DD10B46009200228021204600F016F89A
:101E600070B1606D40F020006065032038BD0098BF
:101E700030B1401E009020688068C0430006F6D54F
:101E8000002038BD1800002000366E012DE9F8430F
:101E90001E46914688460446089DFEF75FFE401B9D
:101EA000351AFEF75BFE074625480068C0F3CB30C5
:101EB000684338E0701C37D0FEF750FEC01BA842C4
:101EC00003D215B1009860B32CE02068416821F07E
:101ED000E00141606068B0F5827F0BD1A068B0F589
:101EE000004F02D0B0F5806F04D12068016821F066
:101EF00040010160A06AB0F5005F09D12068016867
:101F000021F4005101602068016841F40051016032
:101F1000012084F85100002084F850000320BDE81F
:101F2000F8830025401E00902068816838EA01008F
:101F300004D000214945BDD10020F0E70121F9E797
:101F4000180000207047FEF70FBE000030B593B0B8
:101F500030216846FEF76EF914210CA8FEF76AF9E5
:101F60001D480025016841F080510160006800F0C3
:101F7000805011901948016841F480410160006867
:101F8000022400F480401190012000900004019090
:101F90008001CDE9064008AA0420A82182E81300A8
:101FA0000B906846FEF764FF08B172B6FEE70CA915
:101FB0000F2081E831004FF4A0500F904FF4805073
:101FC000109005210CA8FEF769FE002801D072B61A
:101FD000FEE713B030BD0000403802400070004002
:101FE0000248016841F470010160704788ED00E02B
:101FF00008B50E48FFF724FC0C480D4900688842DC
:1020000013D10168C943C9060FD401684068009024
:102010000648FFF7DBFB0748006840680649C0F147
:10202000FF00087005490120087008BD78040020F1
:1020300000100140BC04002001000020000000202E
:1020400010B5806B0021C185C184FFF7F7FB10BD7F
:1020500001680C3151E8002F22F4907241E800230E
:10206000002BF5D10168143151E8002F22F0010254
:1020700041E80023002BF5D1016B012909D101684A
:102080000C3151E8002F22F0100241E80023002B10
:10209000F5D1202180F83E100021016370470168CE
:1020A0000C3151E8002F22F0C00241E80023002B40
:1020B000F5D1202180F83D10704708B590F83E100A
:1020C000222901D0022008BD82684FF480539A4231
:1020D00001D1016921B1816A9A421BD04AB10AE05B
:1020E0000268816A5268C2F308020A80816A891C08
:1020F00008E0026972B10268526802F07F020A7059
:10210000816A491C8162C18D491E0904090CC1857F
:1021100003D019E002685268F1E70168CA6822F04A
:102120002002CA600168CA6822F48072CA6001682D
:102130004A6922F001024A61202180F83E10016BB9
:10214000012903D0FFF74AFD002008BD00210163EB
:1021500001680C3151E8002F22F0100241E8002301
:10216000002BF5D101680A68D20602D50A684968D1
:102170000091818DFFF729FBE6E7000070B504466A
:1021800000680169E26821F440511143016121694D
:10219000A068E26908436169114308432168CA687D
:1021A00049F20C639A430243CA6020684169A269FC
:1021B00021F440711143416131492068884202D0C5
:1021C0003049884202D1FEF713FE01E0FEF700FE1F
:1021D000E2690023192164253226B2F5004F6268B6
:1021E00028D0A0FB0101930F9200FDF7EBFF014601
:1021F000B0FBF5F06FF01802504301EB800006EBE6
:102200000010B0FBF5F000F0F002B1FBF5F002EBCE
:102210000012B1FBF5F06FF01803584301EB80009A
:1022200006EB0010B0FBF5F000F00F002168104441
:10223000886070BDA0FB010192185B41FDF7C2FFF1
:102240000146B0FBF5F00201B1FBF5F06FF01803A9
:10225000584301EB800006EBC000B0FBF5F000F046
:10226000F80002EB4002B1FBF5F0584301EB8000AF
:1022700006EBC000B0FBF5F000F00700D6E7000069
:1022800000100140001401402DE9F0419846174626
:102290000E460446069D27E0681C25D02DB1FEF7AA
:1022A0005DFCA0EB0800A8421ED920680C3050E865
:1022B000001F21F4D07140E80012002AF5D12068F7
:1022C000143050E8001F21F0010140E80012002AFC
:1022D000F5D1202084F83D0084F83E00002084F8E9
:1022E0003C000320BDE8F0812068006836EA000069
:1022F00004D00020B842CFD00020F3E70120F9E756
:10230000FEE700000FB4054B10B503A9044A02987C
:1023100000F028F810BC5DF814FB0000BD27000891
:102320001C0000200907090E002804DB00F1E02052
:1023300080F80014704700F00F0000F1E02080F8F2
:10234000141D704702E008C8121F08C1002AFAD104
:1023500070477047002001E001C1121F002AFBD125
:10236000704700002DE9FF4F8DB00F46054600264F
:1023700006E025280BD0DDE90F1290476D1C761C76
:1023800028780028F5D111B03046BDE8F08F002440
:10239000A246A1460122E94900E0044315F8013FA5
:1023A000203B02FA03F00842F7D128782A2810D0FF
:1023B0006FF02F022878A0F13001092914D80AEB18
:1023C0008A0102EB410144F0020400EB010A6D1C9A
:1023D000F0E701CF5FEA000A03D544F40054CAF1E4
:1023E000000A44F002046D1C28782E2817D115F835
:1023F000010F44F004042A280ED06FF02F02287831
:10240000A0F1300109290AD809EB890102EB410149
:1024100000EB01096D1CF2E757F8049B6D1C28784E
:102420006C280FD006DC4C2817D068280DD06A28FD
:1024300014D104E0742810D07A280FD10DE044F4B0
:1024400000140AE044F4801401E044F44014697874
:10245000814202D104F580146D1C6D1C28786E2811
:102460001ED00CDC632830D004DC00288BD0582828
:1024700011D19FE0642867D069280CD164E07328EB
:102480002DD004DC6F2872D0702804D194E0752818
:102490006ED078286DD0DDE90F129047761C4BE1A5
:1024A000C4F30250022806D0032809D0042801CF23
:1024B00009D0066040E101CFF117C0E900613BE1BE
:1024C00001CF068038E1067036E117F8040B8DF86D
:1024D000000000208DF80100EB46012003E057F8D2
:1024E00004BB4FF0FF3061074FF0000102D40DE054
:1024F00008F10101884649450FDA8045F8DB1BF8F1
:1025000008100029F4D108E008F101018846814251
:10251000FADB1BF808100029F6D1DDE90F23AAEB3E
:1025200008008146214600F031F9304400EB0806EE
:1025300004E0DDE90F121BF8010B9047B8F1010828
:10254000F7D221464846F2E00A21C4F302524FF086
:10255000000B0891022A04D001CFC117032A09D029
:102560000AE0FF1D27F00707F7E8020108E02CE06A
:102570001EE01FE000B2C117042A01D140B2C1170A
:10258000021E71F1000206DA0023D0EB030063EBB8
:1025900001012D2202E0220504D52B228DF82420F2
:1025A000012203E0E20701D02022F7E7904653E042
:1025B0000A210BE0102109E010214FF0000B44F03C
:1025C00004044FF00809089103E008214FF0000BC4
:1025D0000891C4F30252022A04D001CF0021032A39
:1025E00006D006E0FF1D27F00707F7E8020103E029
:1025F00080B2042A00D1C0B24FF0000822072BD5C8
:102600002A78702A07D0DDF820C08CF0100C5CEA24
:102610000B0C05D00EE040228DF82420012208E0AA
:1026200050EA010306D030238DF824308DF82520A0
:1026300002229046089B83F0080353EA0B030BD158
:1026400050EA010201D1620706D530228DF824201C
:102650004FF00108A9F101092A78582A04D038A2BC
:102660000B9208AA0A920BE03AA2F9E75B46089A95
:10267000FDF7A8FD0B9B9B5C0A9A521E0A921370F1
:1026800050EA0102F2D10A98ADEB000000F1200BF4
:10269000600702D524F4803401E04FF00109D945E8
:1026A00002DDA9EB0B0000E0002000EB0B01414430
:1026B0000890AAEB010AE00306D4DDE90F232146C6
:1026C000504600F063F806444FF0000908E009A9FD
:1026D00011F80900DDE90F12904709F10109761C94
:1026E000C145F4DBE0030CD5DDE90F23214650465C
:1026F00000F04CF8064404E0DDE90F12302090476A
:10270000761C0899481E08900029F5DC08E00A9814
:102710000A990078491C0A91DDE90F129047761C4E
:10272000BBF10001ABF1010BF1DC21465046DDE9C4
:102730000F2300F019F806446D1C21E6092801005A
:102740003031323334353637383961626364656627
:1027500000000000303132333435363738394142E9
:1027600043444546000000002DE9F04104460025A1
:102770001E461746880404D405E039462020B04799
:102780006D1C641EF9D52846BDE8F0812DE9F041A5
:10279000044600251E469046C80301D5302700E0B8
:1027A0002027880404D505E041463846B0476D1C13
:1027B000641EF9D52846BDE8F081000013B54FF638
:1027C000FF73012269460248FFF70AFA00981CBD10
:1027D00078040020FEF7D0F9FFF7B8FBFFF772FA94
:1027E000FFF75AFAFFF7B6FAFFF7D6FA454800683E
:1027F000C16841F01001C160FDF7BEFD4248FDF720
:1028000013FE42A0FFF77EFD3F4E3078EF2801D047
:10281000012000E000207178142901D0012100E09E
:102820000021084301D072B6FEE73FA0FFF76AFD22
:10283000354C002565606068315C3FA0FFF762FDA4
:102840006068401C60600228F5D33DA0FFF75AFD88
:102850004FF400773A4600213B48FDF7AFFD08B141
:1028600072B6FEE739A0FFF74DFD3CA0FFF74AFD29
:10287000354E65606068315C3CA0FFF743FD6068E1
:10288000401C6060B842F5D337A0FFF73BFD002045
:10289000FDF70CFD08B172B6FEE737A0FFF732FD79
:1028A0003B4A28461321656011543554401CB842F8
:1028B000FAD360603A4600213548FDF7DDFD08B1E6
:1028C00072B6FEE733A0FFF71DFD3A4600211E4811
:1028D000FDF774FD08B172B6FEE734A0FFF712FDF4
:1028E00036A0FFF70FFD65606068315C1FA0FFF741
:1028F00009FD6068401C6060B842F5D333A0FFF763
:1029000001FDFEE778040020040000205F5F5F5FA8
:102910005F5F5F5F5F5F5F5F5F5F5F5F5F5F5F5FC7
:102920005F5F5F5F5F5F5F00573235513132382044
:102930004944203A200000003078253032582000E9
:102940000D0A0D0A0000000020020020535049200B
:1029500072656164206F6B0A0000000053504920CB
:10296000446174612069730D0A00000030782530DD
:102970003258202000000000515350492045726118
:10298000736520426C6F636B206F6B0D0A00000053
:1029900020000020535049204572617365207772F2
:1029A000697465206F6B200D0A00000053504920A8
:1029B00052656164206F6B200D0A0000535049205E
:1029C000446174612069733A200D0A002A2A2A2A78
:1029D0002A2A2A2A2A2A2A2A2A2A2A2A2A2A2A2A57
:1029E0002A2A2A2A2A2A2A2A2A2A2A2A2A2A2A2A47
:1029F0002A2A2A2A2A0D0A00000610160006101696
:102A0000000000000000000001020304060708099E
:102A10000000000001020304382A00080000002022
:102A20002000000044230008582A0008200000204D
:102A3000000900005423000800000000000000000E
:102A40000000000001000000100000000000000075
:082A50000024F4000000000066
:040000050800018965
:00000001FF
